:020000040800F2
:1000000000000820257B0008B51F0008B71F000866
:10001000B91F0008BB1F0008BD1F0008000000003A
:1000200000000000000000000000000091780008BF
:10003000BF1F000800000000317900089579000812
:10004000757B0008757B0008757B0008757B0008D0
:10005000757B0008757B0008757B0008757B0008C0
:10006000757B0008757B0008757B0008757B0008B0
:10007000757B0008C11F0008757B0008D11F0008B0
:10008000757B0008757B0008757B0008757B000890
:10009000757B0008757B0008757B0008757B000880
:1000A000757B0008E11F0008757B0008757B000860
:1000B000757B0008757B0008757B0008757B000860
:1000C000757B0008757B0008757B0008757B000850
:1000D000757B0008757B0008757B0008757B000840
:1000E000757B0008757B0008757B0008757B000830
:1000F000757B0008757B0008757B0008757B000820
:10010000757B0008757B0008757B0008757B00080F
:10011000757B0008757B0008757B0008757B0008FF
:10012000757B0008757B0008757B0008757B0008EF
:10013000757B0008757B0008757B0008757B0008DF
:10014000757B0008757B0008757B0008757B0008CF
:10015000757B0008757B0008757B0008757B0008BF
:10016000757B0008757B0008757B0008757B0008AF
:10017000757B0008757B0008757B00080000000097
:10018000757B0008757B0008757B0008757B00088F
:10019000757B0008757B0008757B0008757B00087F
:1001A000757B0008757B0008757B0008757B00086F
:1001B000757B0008757B0008757B0008757B00085F
:1001C000757B0008757B0008757B0008757B00084F
:1001D000757B0008757B0008757B0008757B00083F
:1001E000F11F00080120000811200008212000084C
:0801F000757B0008757B000817
:10020000034613F8012B002AFBD1181A0138704756
:1002100001F0FF01102A2BDB10F0070F08D010F8B7
:10022000013B013A8B422DD010F0070F42B3F6D1BB
:10023000F0B441EA012141EA014122F007047FF0D4
:1002400000070023F0E80256083C85EA010586EA2B
:10025000010685FA47F5A3FA87F586FA47F6A5FA67
:1002600087F68EB9EED1F0BC01F0FF0102F0070273
:1002700032B110F8013B013A83EA010313B1F8D11E
:100280000020704701387047002D06BF35460338FF
:10029000073815F0010F07D1013015F4807F02BF38
:1002A000013015F4C03F0130F0BC0138704700BF89
:1002B00053B94AB9002908BF00281CBF4FF0FF31CD
:1002C0004FF0FF3000F00CB8ADF1080C6DE904CE32
:1002D00009F0F2FADDF804E0DDE9022304B070472A
:1002E000704700BF0348044B834202D0034B03B165
:1002F00018477047700000207000002000000000C8
:100300000548064B1B1AD90F01EBA301491002D077
:10031000034B03B1184770477000002070000020A5
:100320000000000010B5064C237843B9FFF7DAFF50
:10033000044B13B10448AFF300800123237010BDB8
:100340007000002000000000B09B000808B5054BBD
:100350001BB105490548AFF30080BDE80840FFF731
:10036000CFBF00BF0000000074000020B09B000859
:1003700010B50C4601224FF40051044802F070FF02
:100380002146034807F0BCFC10BD00BF000402403A
:10039000449C000808B50F4807F01AFD00F0D8FC8F
:1003A00060B900F09FF960B900F0D4FA60B900F0CC
:1003B00085F960B9084807F00BFD08BD00F026FE7E
:1003C000EFE700F023FEEFE700F020FEEFE700F09C
:1003D0001DFEEFE7609C00087C9C000800B583B020
:1003E000084800F0BFFB06F06DF901904FF4805112
:1003F000054802F03BFF4FF47A7101A806F074FA49
:10040000F4E700BF909C00080004024078B138B5C2
:100410000D461446074907F03BFD012801D0012095
:1004200038BD2068A84294BF00200120F8E70120D1
:10043000704700BFA09C000870B582B005460E460C
:10044000104601AA012100F00BFD6A4641F28831F5
:10045000FFF7DCFFF8B91D4B188800F08DFA38BBA8
:1004600000984FF47A7303FB00F0194BA3FB0030A4
:10047000800906F091FA154C2368164A3146284641
:1004800007F0AEFC236803F580732360B3F5805F4B
:1004900018D201200AE000240C4B1C6041F2883382
:1004A0000D4A3146284607F09BFC204602B070BD3D
:1004B0000024064B1C60094A3146284607F090FC90
:1004C0002046F3E700202060F0E700BF8C0000200A
:1004D000D34D6210E09C0008A49C0008CC9C00084E
:1004E00078B138B50D461446074907F0D1FC01280C
:1004F00001D0012038BD2068A84294BF002001200F
:10050000F8E70120704700BFF09C000830B583B0C9
:1005100004460D46104601AA012100F0A1FC6A46DE
:1005200040F6FF71FFF7DCFF68B9BDF8000000F08E
:1005300023FA70B9009B0A4A2946204607F050FC6E
:10054000002003B030BD074A2946204607F048FC8A
:10055000F6E7054A2946204607F042FCF0E700BFCF
:10056000289D0008F49C0008CC9C000810B582B0BF
:100570000023019330B10C4601AA094907F088FC19
:10058000012802D0012002B010BD019B5A1E022A90
:1005900004D8DBB2013B23700020F4E70120F2E72E
:1005A000A09C000830B583B004460D46104601AA51
:1005B000012100F055FC6A4640F6E341FFF726FFB3
:1005C00068B9BDF8000000F0EDF980B9009B0B4A56
:1005D0002946204607F004FC002003B030BD40F659
:1005E000E343074A2946204607F0FAFBF4E7054AA9
:1005F0002946204607F0F4FBEEE700BF709D000897
:10060000489D0008CC9C000838B504460D4600F013
:10061000ADF930B9064A2946204607F0E1FB002033
:1006200038BD044A2946204607F0DAFBF7E700BF49
:10063000D09D00088C9D000870B582B005460E461E
:10064000104601AA012100F00BFC0DF10301FFF798
:100650008DFFB0B9154B1C68772C1DD8631C134A4D
:100660001360610089B29DF8030000F019F90028B9
:10067000F0D123460E4A3146284607F0B1FB01204F
:1006800012E00A4B08221A6003230A4A3146284620
:1006900007F0A6FB002007E008221A60064A314650
:1006A000284607F09DFB002002B070BD000000202E
:1006B000049E0008E49D00081C9E000810B500245C
:1006C000042C08D8064B53F8240000F09BFB0128AB
:1006D00003D10134F4E7002010BD0120FCE700BF86
:1006E000BCA4000810B500220121802005F080FB89
:1006F0001A4C2060012005F08EF9194B1860236810
:100700003BB340B3174B5B6FB3B1DB69B3F5807F8D
:1007100017D1144B5B6F5B6ABBB9124803689A69C7
:1007200042F008029A619A6942F010029A6101222D
:100730000D4904F01FFF10BD0C4800F013FA012012
:10074000F9E70B4800F00EFAE3E70A4800F00AFA6E
:10075000E3E70120EFE70120EDE700BF9400002070
:1007600090000020C40F00209800002018A000086E
:1007700054A000088CA00008002918BF002800D150
:10078000704708B564230A460146024804F0A6FDF6
:1007900008BD00BFC40F002038B5002918BF0028CD
:1007A00026D004460D46144B1B6863B106F03CFB93
:1007B000012808D06421104B186805F037F901288A
:1007C00007D0032415E029462046FFF7D5FF002473
:1007D0000FE064232A462146084804F07FFD0446C2
:1007E00000231A4619460448006805F03CF800E06A
:1007F0000124204638BD00BF90000020C40F002017
:1008000060B108B50B460146064A106840B10122A6
:1008100005F029FC012800D0002008BD0020704709
:100820000020FAE79400002000B583B00023019374
:1008300002680E4B1B689A4202D003B05DF804FBBD
:1008400001AB01220A490B48006805F0B4FB019B8B
:10085000002BF2D04FF0E0234FF08052C3F8042D6C
:10086000BFF34F8FBFF36F8FE7E700BFC40F0020C8
:100870009800002094000020012804D0022804D011
:1008800028B904487047044870470448704700205E
:10089000704700BF400C0020EC0B0020980B00209C
:1008A00038B505460C46FFF7E7FF28B10F230222B3
:1008B000214604F029F838BD2946024800F052F9D3
:1008C0000120F8E7E8A00008002918BFB0F5805F14
:1008D00012D200220A8241230B70C0F3032C81F84C
:1008E00001C0C3B28B704320C87081F804C04B7143
:1008F00006230B82104670470120704778B10246EC
:10090000038A0BB90120704700B583B00F21009115
:10091000C021044803F026FF03B05DF804FB01206A
:10092000704700BF400C002010B5094C00224FF466
:100930008061204602F094FC012006F02DF801228F
:100940004FF48061204602F08BFC002010BD00BFF8
:100950000014024008B501224FF48061024802F001
:100960007FFC002008BD00BF0014024008B5C02174
:100970000020FFF795FF08BD00B587B001A9FFF77C
:10098000A3FF18B1012007B05DF804FB01A8FFF731
:10099000B5FF08B10120F6E7FFF7C6FF0028F2D047
:1009A0000120F0E708B540F6E343984201D9012061
:1009B00008BD8002034BA3FB0030C0F34F10FFF7CC
:1009C000DBFFF5E79F00EE09BFF34F8F0549CA68CB
:1009D00002F4E062044B1343CB60BFF34F8F00BFC0
:1009E000FDE700BF00ED00E00400FA05031E04DB94
:1009F00018468B4202D3481E704700207047000003
:100A000008B50B210248FFF7B7FEFFF7DDFF00BF77
:100A100020A50008002918BF002816D038B50446C4
:100A20000D460A4B1B685BB106F0FEF9012807D0A2
:100A300000232A4621460548006805F030FA38BDF3
:100A4000A9B22046FFF798FEF9E770472806002074
:100A5000002918BF00281BD0F8B507460D460D4BDE
:100A60001B6883B106F0E0F901280CD00024AC42E9
:100A70000DD264232A1B3919064E306805F00FFA8F
:100A800028B10444F3E7A9B23846FFF775FEF8BD74
:100A9000704700BF28060020F8B507460D461646E9
:100AA00032462946384600F00DFA04462846FFF73C
:100AB000A7FB01462846FFF7CBFF002CF0D1F8BD7D
:100AC00010B50024042C08D8064B53F8240000F07D
:100AD00099F9012803D10134F4E7002010BD012069
:100AE000FCE700BF2CA5000808B5024A07F078F91A
:100AF000002008BD14A1000810B50446054A07F0FF
:100B00006FF92046FFF77CFB204406F015FB002020
:100B100010BD00BF4CA1000810B50446054A07F0FF
:100B20005FF92046FFF76CFB204406F0A9FA00208D
:100B300010BD00BF68A1000870B582B004460D4624
:100B400006F03EFE064606F041FE00903346044A9B
:100B50002946204607F044F9002002B070BD00BFCE
:100B600084A100080FB430B583B0194B1B682BB3B8
:100B700006F05AF9012818D1002407AB0193154D4E
:100B8000069A4FF48071284607F022FA4FF48071DC
:100B9000FFF72CFF01462846FFF73CFF012C0FD042
:100BA00003B0BDE8304004B070470A21084B186814
:100BB00004F03CFF04460128DFD0F1E70024DCE725
:100BC00000231A4619460248006804F04CFEE7E785
:100BD000240600202405002010B582B004468DF8BC
:100BE000070001210DF10700FFF714FF204602B0B6
:100BF00010BD000000B591B04FF0FF3340226946B0
:100C00000548006805F02FFA0028F5D081B2684643
:100C1000FFF7C2FDF0E700BF2806002030B583B023
:100C20005A212648FFF714FF4FF4806224492548D3
:100C3000FFF732FF02212448FFF70AFF002408E0F3
:100C400002212248FFF704FFECB902211E48FFF7FA
:100C5000FFFE4FF0FF310DF10700FFF7D1FD012836
:100C6000F7D19DF807300A2B18BF0D2BE8D07F2B4A
:100C700018BF082B11D1002CEBD0013C03211448E4
:100C8000FFF7E6FEE5E71348002505554FF48062BF
:100C90000B49FFF701FF2C46D7E7A3F12002D2B2A0
:100CA0005E2AD6D87E2CD4D8651C0A4A1355012159
:100CB0000DF10700FFF7CCFE2C46CAE7B8A10008EB
:100CC0002401002014A200081CA2000810A20008A1
:100CD00020A20008A400002008B501F081FEC0F3A6
:100CE000DB030C4AA2FB03234CF24F32B2EB400F62
:100CF0000AD2DB09013B0848026893620023536271
:100D000002F0F2FD10B908BD0023F4E70348FFF735
:100D100029FFF8E7C55A7C0AA80D002024A2000884
:100D200010B4084B1B685B6A9BB2074A1088181AFC
:100D300006490C6814FA80F0086013805DF8044BD3
:100D4000704700BFA80D0020A00000209C000020DC
:100D500010B5002201214FF4806005F049F8084CDD
:100D60002060012004F057FE064B186023681BB179
:100D700020B1FFF7A5FE10BD0120FCE70120FAE736
:100D80002806002024060020034600E001331A78DC
:100D90000AB1202AFAD10021084601E000210133DE
:100DA0001A7832B1202AF9D00029F8D10130012176
:100DB000F5E7704708B50F4B1B680F4A126893425E
:100DC00007D30C4B1A680C4B1B689A420DD20120BA
:100DD00008BD0A4A52F823305B68094A07F000F858
:100DE000044A136801331360EBE70020014B1860DD
:100DF000EEE700BF30060020340600203806002051
:100E000084A300080346D8B10268DAB14268DAB1B7
:100E10008268DAB10F4A126832B9501C0D49086075
:100E20000D490E4841F822000A4A1268172A0FD8C5
:100E3000501C08490860084941F8223001207047D9
:100E40000020704700207047002070470020704746
:100E500000207047340600203806002090A50008C6
:100E600010B4034614460AB100222260002918BFBC
:100E7000002B25D04FF0000C60460EE001331A78AD
:100E80001AB1202AFAD100E001331A78202AFBD0C7
:100E90002AB10CF1010C61450ED08C45EFD35DF801
:100EA000044B70470132107808B12028FAD12CB1D8
:100EB000D21A22601846F0E71A46F4E71846ECE723
:100EC0000020ECE7002918BF002858D02DE9F84F82
:100ED00005460F469146002A53D02B4BD3F800A06D
:100EE000BAF1000F34D000233B70274B1B689B687E
:100EF0002A46494638469847002843D1224B0022CB
:100F00001A603FE00136214B1B68B34215D9204BD4
:100F100053F826B0DBF800804046FFF771F904462D
:100F200002462946404607F0FBF80028EAD12B5D2F
:100F3000002B18BF202BE5D1DA46BAF1000F09D0FB
:100F40009AF90C40002C0DDA0F4BC3F800A0CAE749
:100F50000026D8E70F4B104A4946384606F040FFB6
:100F600000200FE02846FFF70FFFA042ECD00B4B0C
:100F7000094A4946384606F033FF002002E00020C7
:100F800070470020BDE8F88F2C06002034060020B2
:100F90003806002088A3000884A30008D4A3000812
:100FA00030B585B00024009401940294039401F0BC
:100FB00081F901238DF800308DF8014001941F2242
:100FC0008DF8082087228DF809208DF80A408DF8C9
:100FD0000B408DF80C308DF80D308DF80E408DF8EB
:100FE0000F40684601F084F9042001F071F905B062
:100FF00030BD000008B50268034B9A4200D008BD1E
:1010000001F0E4F8FBE700BF0000014072B6FEE724
:1010100010B594B007AC34220021204607F078F8D0
:10102000002302930393049305930693224B1A6CB7
:1010300042F080521A641B6C03F080530093009BB3
:101040001E4B1A6842F440421A601B6803F4404386
:101050000193019B012307934FF4803308930223EC
:101060000D934FF480020E9204220F92C822109228
:10107000119312931393204601F066F9A8B902F078
:101080000BFBA0B90F2302930223039300230493C5
:101090004FF4A05305934FF480530693062102A802
:1010A00001F0E2FB28B914B010BDFFF7AFFFFFF766
:1010B000ADFFFFF7ABFF00BF0038024000700040FB
:1010C00008B5FFF76DFF01F075F8FFF7A1FF00F01D
:1010D00025F800F0A7F900F0C7F900F0E9F900F0F1
:1010E0000BFA00F0E7FA00F03FFB00F069FB00F0BC
:1010F00093FB00F069FC00F08DFC00F08FFD00F028
:1011000003FE00F01DFE00F037FE00F007FDFFF7C4
:1011100041F900F031F906F0F1F9FEE72DE9F04F61
:1011200091B00BAD00240B946C60AC60EC602C6152
:101130007D4B1A6B42F010021A631A6B02F0100218
:101140000192019A1A6B42F020021A631A6B02F0A4
:1011500020020292029A1A6B42F080021A631A6B02
:1011600002F080020392039A1A6B42F001021A63A2
:101170001A6B02F001020492049A1A6B42F0040204
:101180001A631A6B02F004020592059A1A6B42F078
:1011900002021A631A6B02F002020692069A1A6B96
:1011A00042F480721A631A6B02F480720792079AF3
:1011B0001A6B42F400721A631A6B02F400720892FE
:1011C000089A1A6B42F040021A631A6B02F040024E
:1011D0000992099A1A6B42F008021A631B6B03F01A
:1011E00008030A930A9BDFF85CB122464FF47C4166
:1011F000584602F035F8DFF850A122461F2150462C
:1012000002F02EF8DFF8448122460121404602F028
:1012100027F8464F22464FF43041384602F020F876
:10122000DFF82C9122464FF47F41484602F018F82F
:101230004FF47C430B9301260C960D940E94294693
:10124000584601F00BFF4FF40C730B930C940D9464
:101250002946374801F002FF07230B930C940D94A5
:101260002946384601F0FAFE4FF400430B930C94E4
:101270000D9429462F4801F0F1FE1F230B930C9685
:101280000D940E942946504601F0E8FE0B960C96FC
:101290000D940E942946404601F0E0FE02230B9384
:1012A0000C940D942946404601F0D8FE4FF47E433D
:1012B0000B930C940D9429461F4801F0CFFE4FF478
:1012C000F0530B930C940D9429461C4801F0C6FE74
:1012D0004FF430430B930C960D940E9429463846E8
:1012E00001F0BCFE4FF480430B934FF488130C9332
:1012F0000D942946384601F0B1FE4FF47F430B931D
:101300000C960D940E942946484601F0A7FE4FF422
:10131000C0630B930C940D942946094801F09EFE7E
:1013200011B0BDE8F08F00BF003802400004024059
:10133000000802400020024000100240001C024051
:101340000000024000140240002402400018024045
:10135000000C024008B5012006F008F9FBE7000088
:10136000034B0360034B0B604FF4807313607047B3
:10137000980A00209806002010B59CB0244C0DF16E
:10138000540CA646BEE80F00ACE80F009EE807002C
:101390008CE80700002115A806F0B5F81D4B186071
:1013A0000DF1380C04F11C0EBEE80F00ACE80F0084
:1013B0009EE807008CE8070000210EA806F0A3F8BD
:1013C000154B18600DF11C0C04F1380EBEE80F002F
:1013D000ACE80F009EE807008CE80700002107A892
:1013E00006F091F80D4B1860EE4604F1540CBCE881
:1013F0000F00AEE80F009CE807008EE80700002110
:10140000684606F080F8064B18601CB010BD00BF9F
:10141000C89B0008040B0020000B0020FC0A0020E1
:10142000F80A002000B583B00E4B1A6B42F400128C
:101430001A631B6B03F400130193019B0022052127
:101440000D2000F019FF0D2000F026FF00220521DD
:101450000F2000F011FF0F2000F01EFF03B05DF819
:1014600004FB00BF0038024008B50F480F4B036073
:1014700005234360002383604FF04072C2604FF445
:10148000402202614FF4A0024261037601224276BB
:101490008276C2760377437702F0CDFD00B908BDAE
:1014A000FFF7B4FDFBE700BF5C0B002000640040C9
:1014B00008B50F480F4B036005234360002383608A
:1014C0004FF04072C2604FF4402202614FF4A0021C
:1014D00042610376012242768276C27603774377B1
:1014E00002F0A9FD00B908BDFFF790FDFBE700BFC2
:1014F000340B00200068004008B50C480C4B03601A
:101500000A23436000238360C3604FF4E02202613A
:101510004361037643768376C3760377437702F09D
:101520008AFD00B908BDFFF771FDFBE70C0B002039
:101530000034004000B58DB0002307930893099351
:101540000A930B930368544A934208D0534A934238
:101550002ED0534A93425DD00DB05DF804FB514A42
:10156000136801331360012B17D04F4B1A6B42F0F5
:1015700001021A631B6B03F001030193019B4FF4FB
:10158000C05307930223089303230A9309230B9361
:1015900007A9464801F062FDDEE7434B1A6C42F0B2
:1015A00000721A641B6C03F000730093009BDCE76D
:1015B0003D4B1A6C42F080621A641B6C03F080632E
:1015C0000293029B374A136801331360012B16D034
:1015D000354B1A6B42F002021A631B6B03F00203D5
:1015E0000493049B602307930223089303230A9325
:1015F00009230B9307A92E4801F030FDACE72A4BD5
:101600001A6C42F000721A641B6C03F000730393AF
:10161000039BDDE7244B1A6C42F400521A641A6CE7
:1016200002F400520592059A1A6B42F001021A6305
:101630001B6B03F001030693069B4FF401430793D2
:101640000223089303230A930B230B9307A917483C
:1016500001F004FD00220521682000F00DFE682045
:1016600000F01AFE00220521692000F005FE692025
:1016700000F012FE002205216A2000F0FDFD6A2024
:1016800000F00AFE002205216B2000F0F5FD6B2022
:1016900000F002FE60E700BF006400400068004008
:1016A00000340040080B00200038024000000240D7
:1016B0000004024000B583B000230093019310485A
:1016C000104B036003F02CFA80B9002200920192C3
:1016D00069460B4803F036FA58B9102269460848A3
:1016E00003F030FA40B903B05DF804FBFFF78EFC5D
:1016F000EBE7FFF78BFCF0E7FFF788FCF3E700BFB1
:10170000840B00200074004000B589B000230393CF
:1017100004930593069307930268114B9A4202D0F3
:1017200009B05DF804FB03F5E2331A6C42F0005295
:101730001A641A6C02F000520192019A1A6B42F07C
:1017400001021A631B6B03F001030293029B302317
:1017500003930323049303A9024801F07FFCDFE70E
:10176000007400400000024008B51248124B0360AC
:10177000124B4360002383600122C2600361436116
:101780008361C361036202F089FF50B900210948F7
:1017900003F06EF940B90021064803F096F930B91C
:1017A00008BDFFF733FCF1E7FFF730FCF3E7FFF785
:1017B0002DFCF5E7400C002000540040FFEAC0007B
:1017C00008B51248124B0360124B4360002383603C
:1017D0000122C260036143618361C361036202F05D
:1017E0005DFF50B90021094803F042F940B90021DA
:1017F000064803F06AF930B908BDFFF707FCF1E7C6
:10180000FFF704FCF3E7FFF701FCF5E7EC0B002022
:1018100000580040FFEAC00008B51248124B0360B0
:10182000124B4360002383600122C2600361436165
:101830008361C361036202F031FF50B9002109489E
:1018400003F016F940B90021064803F03EF930B91B
:1018500008BDFFF7DBFBF1E7FFF7D8FBF3E7FFF786
:10186000D5FBF5E7980B0020005C0040FFEAC000C4
:1018700010B5B0B0044600212B912C912D912E91E2
:101880002F91902207A806F043FC2368474A934211
:1018900007D0474A934231D0464A934259D030B09C
:1018A00010BD4FF48043079307A801F0D7F810BB91
:1018B000414C236B43F002032363236B03F00203C9
:1018C0000193019B4FF440732B9312232C9300231D
:1018D0002D9303232E9304232F932BA9374801F034
:1018E000BDFB236C43F400132364236C03F4001347
:1018F0000293029BD3E7FFF789FBD9E74FF400433C
:10190000079307A801F0AAF800BB2B4C236B43F008
:1019100020032363236B03F020030393039B032320
:101920002B9312222C9200222D922E9304232F937C
:101930002BA9234801F092FB236C43F4800323641A
:10194000236C03F480030493049BA8E7FFF75EFB7A
:10195000DBE74FF48033079307A801F07FF810BB53
:10196000154C236B43F080032363236B03F0800348
:101970000593059B4FF4C0732B9312232C930023E4
:101980002D9303232E9304232F932BA90D4801F0AD
:1019900065FB236C43F400032364236C03F400030E
:1019A0000693069B7BE7FFF731FBD9E70054004025
:1019B00000580040005C0040003802400004024033
:1019C00000140240001C024008B51048104B036090
:1019D0004FF482734360002383604FF4E062C2607F
:1019E000036143614FF4802282612822C261036255
:1019F000436283620722C26203630823436303F0E6
:101A0000D2F800B908BDFFF701FBFBE7F80C002096
:101A10000034014008B51048104B03604FF4827346
:101A20004360002383604FF4E062C260036143615E
:101A30004FF4802282612822C26103624362836282
:101A40000722C26203630823436303F0ACF800B9C2
:101A500008BDFFF7DBFAFBE7940C002000500140C3
:101A600000B58BB000230593069307930893099361
:101A70000368254A934205D0244A934222D00BB0F2
:101A80005DF804FB224B5A6C42F400525A645A6CC3
:101A900002F400520192019A1A6B42F010021A638A
:101AA0001B6B03F010030293029B74230593022324
:101AB0000693032308930523099305A9154801F00C
:101AC000CDFADCE7124B5A6C42F480125A645A6C1D
:101AD00002F480120392039A1A6B42F020021A63F6
:101AE0001B6B03F020030493049B4FF47073059366
:101AF00002230693032308930523099305A90648A7
:101B000001F0ACFABBE700BF0034014000500140D7
:101B100000380240001002400014024000B585B0B9
:101B200000230193029303930E480F4A026043601F
:101B300083604FF6FF72C260836102F0ABF850B968
:101B400000230193039301A9064802F0D9F928B9AB
:101B500005B05DF804FBFFF759FAF1E7FFF756FA15
:101B6000F6E700BFA80D0020001400400268094BF2
:101B70009A4200D0704782B003F509331A6C42F0E4
:101B800020021A641B6C03F020030193019B02B036
:101B9000704700BF001400400268094B9A4200D011
:101BA000704782B003F59A335A6C42F002025A64CD
:101BB0005B6C03F002030193019B02B0704700BF0E
:101BC0000004014000B587B0002301930293039302
:101BD00004930593026803F1804303F582339A422C
:101BE00002D007B05DF804FB03F59A331A6B42F09C
:101BF00004021A631B6B03F004030093009B4FF471
:101C0000E07301930223029304930323059301A934
:101C1000014801F023FAE4E70008024010B596B04D
:101C200000241394149415940C940D940E940F9412
:101C30001094119412942C22214601A806F068FAFF
:101C40002F48304B0360446084604FF6FF73C360DD
:101C500004614461846102F04DF800283DD1002305
:101C600013931493159313A9254802F049F90028FA
:101C700036D160230C9300220D920E920F92109297
:101C8000119212920CA91E4802F09CF858BB042233
:101C90000CA91B4802F096F840BB08220CA9184872
:101CA00002F090F828BB002301930293039304935E
:101CB00005934FF400520692079308934FF0007279
:101CC00009920A930B9301A90D4802F069F998B99A
:101CD0000B48FFF777FF16B010BDFFF797F9BEE787
:101CE000FFF794F9C5E7FFF791F9D0E7FFF78EF911
:101CF000D3E7FFF78BF9D6E7FFF788F9E8E700BFEE
:101D00005C0D00200004014008B50B480B4B03603C
:101D10004FF4E133436000238360C36003610C220E
:101D200042618361C3610362436203F09DFB00B9BA
:101D300008BDFFF76BF9FBE7C40F0020004C004023
:101D400008B50B480B4B03604FF4E13343600023AD
:101D50008360C36003610C2242618361C3610362DB
:101D6000436203F081FB00B908BDFFF74FF9FBE7C1
:101D70003C0F00200078004008B50B480B4B036077
:101D80004FF4E133436000238360C36003610C229E
:101D900042618361C3610362436203F065FB00B982
:101DA00008BDFFF733F9FBE7B40E00200048004000
:101DB0002DE9F041B0B0044600212B912C912D91DA
:101DC0002E912F91902207A806F0A2F923686E4A5F
:101DD000934209D06D4A93426AD06D4A934200F013
:101DE000948030B0BDE8F0814FF40073079307A8EA
:101DF00000F034FE002852D1664B1A6C42F40022E7
:101E00001A641A6C02F400220192019A1A6B42F0D1
:101E100080021A631B6B03F080030293029B4FF452
:101E2000C0432B9302232C9300252D9503232E933F
:101E300008232F932BA9584801F010F95748584B05
:101E400003604FF0006343608560C5604FF48063BA
:101E50000361456185614FF48073C361056245622A
:101E600001F08AFAF0B94D4B63679C634D484E4BC5
:101E700003604FF000634360402383600023C3602E
:101E80004FF48062026143618361C3610362436214
:101E900001F072FA48B9434B23679C63A1E7FFF74F
:101EA000B5F8A9E7FFF7B2F8DDE7FFF7AFF8F2E71B
:101EB0004FF48053079307A800F0D0FD10BB354BBB
:101EC0001A6C42F080421A641A6C02F0804203924B
:101ED000039A1A6B42F010021A631B6B03F0100393
:101EE0000493049B4FF4C0732B9302232C93002381
:101EF0002D9303232E9308232F932BA92B4801F016
:101F0000ADF86EE7FFF782F8D9E74FF480730793D7
:101F100007A800F0A3FD002833D11E4B1A6C42F431
:101F200080221A641A6C02F480220592059A1A6BB8
:101F300042F002021A631B6B03F002030693069B36
:101F40004FF480632B934FF00208CDF8B08000234C
:101F50002D9303272E9707262F962BAD144C294639
:101F6000204601F07BF84FF400632B93CDF8B0804E
:101F700001232D932E972F962946204601F06EF8C7
:101F80002FE7FFF743F8C8E7004C00400078004017
:101F90000048004000380240001C0240540E00205F
:101FA00040600240F40D00207060024000100240CA
:101FB00000040240FEE7FEE7FEE7FEE7FEE77047AB
:101FC00008B5024801F07AFA08BD00BF540E00209F
:101FD00008B5024801F072FA08BD00BFF40D0020F8
:101FE00008B5024801F00EFD08BD00BF4C100020EE
:101FF00008B5024802F0D2F808BD00BF0C0B002063
:1020000008B5024802F0CAF808BD00BF0C0B00205A
:1020100008B5024802F0C2F808BD00BF0C0B002052
:1020200008B5024802F0BAF808BD00BF0C0B00204A
:1020300000B583B00D4B1A6C42F080521A641A6CD2
:1020400002F080520092009A5A6C42F480425A6424
:102050005B6C03F480430193019B00220F216FF01E
:10206000010000F009F903B05DF804FB00380240FC
:1020700030B589B004461E4B5A6C42F001025A64D6
:102080005B6C03F001030193019B02A903A800F01C
:10209000C7FC00F0B5FC4300164AA2FB03239B0CCF
:1020A000013B1548154A026040F2E732C2604360C6
:1020B000002303618360836101F0ECFD054610B1EC
:1020C000284609B030BD0C4801F050FC05460028F8
:1020D000F6D1192000F0E0F80F2C01D90125EFE727
:1020E00000222146192000F0C7F8054B1C60E7E7E5
:1020F0000038024083DE1B434C10002000000140EA
:102100000C000020034AD2F8883043F47003C2F870
:102110008830704700ED00E070B50C46164600258B
:1021200006E0AFF30080214601F8010B01350C46B3
:10213000B542F6DB304670BD70B50C46164600253C
:1021400004E014F8010BFEF747FD0135B542F8DB5A
:10215000304670BD4FF0FF3070474FF400534B6076
:1021600000207047012070470020704710B50346DB
:102170000C4A0D490D48006840B10C480068034402
:10218000521A934206D8094A136010BD0748084CFA
:102190000460F2E706F01CF80C2303604FF0FF30F8
:1021A000F3E700BF000008200004000098100020A2
:1021B00090D6002008B5032000F04CF80F20FFF760
:1021C00057FFFFF735FF002008BD0000034A1168E4
:1021D000034B1B780B441360704700BF9C1000201A
:1021E00008000020014B1868704700BF9C100020B9
:1021F000002804DB0901C9B2044B1954704700F0F0
:102200000F000901C9B2024B1954704700E400E005
:1022100014ED00E000B500F00700C0F1070CBCF1C0
:10222000040F28BF4FF0040C031D062B0FD9C31E4B
:102230004FF0FF3E0EFA0CF021EA000199400EFA31
:1022400003FE22EA0E0241EA02005DF804FB0023CD
:10225000EEE700000649CB6823F4E0631B041B0C87
:10226000000200F4E0600343024A1A43CA60704768
:1022700000ED00E00000FA0510B50446054BD868F3
:10228000C0F30220FFF7C6FF01462046FFF7B0FF6C
:1022900010BD00BF00ED00E0002807DB00F01F02CA
:1022A000400901239340024A42F82030704700BFA2
:1022B00000E100E0BFF35F8F044B5A6A22F48032E2
:1022C0005A620022C3F89420704700BF00ED00E07E
:1022D00040F00100054BC3F894005A6A42F4803282
:1022E0005A62BFF34F8FBFF36F8F704700ED00E06E
:1022F0004378144AC2F89830D2F8A03023F0010392
:10230000C2F8A0304368C2F89C30017BC37A1B0638
:1023100043EA0173817A43EAC143417B43EA814343
:10232000817B43EA4143C17B43EA0143417A43EA6B
:102330000123017A43EA410301780B43C2F8A0303C
:10234000704700BF00ED00E0002800F0068270B585
:1023500082B00446036813F0010F29D0954B9B68A7
:1023600003F00C03042B1AD0924B9B6803F00C0370
:10237000082B0FD06368B3F5803F40D0002B54D1B9
:102380008C4B1A6822F480321A601A6822F4802278
:102390001A6039E0874B5B6813F4800FEAD0854BF5
:1023A0001B6813F4003F03D06368002B00F0D78153
:1023B000236813F0020F74D07E4B9B6813F00C0F50
:1023C0005ED07C4B9B6803F00C03082B53D0E36872
:1023D000002B00F08980774A136843F001031360F3
:1023E000FFF700FF0546734B1B6813F0020F72D115
:1023F000FFF7F8FE401B0228F5D90320B4E16D4A2F
:10240000136843F48033136063682BB3FFF7EAFE6D
:102410000546684B1B6813F4003FC9D1FFF7E2FE85
:10242000401B6428F5D903209EE1B3F5A02F09D005
:10243000604B1A6822F480321A601A6822F48022F3
:102440001A60E1E75B4B1A6842F480221A601A684E
:1024500042F480321A60D7E7FFF7C4FE0546554BB9
:102460001B6813F4003FA3D0FFF7BCFE401B642899
:10247000F5D9032078E14F4B5B6813F4800FA6D1A8
:102480004C4B1B6813F0020F03D0E368012B40F0A4
:102490006881484A136823F0F803216943EAC103BD
:1024A0001360236813F0080F46D0636983B3414A71
:1024B000536F43F001035367FFF794FE05463D4B0E
:1024C0005B6F13F0020F37D1FFF78CFE401B022821
:1024D000F5D9032048E1374A136823F0F80321694E
:1024E00043EAC1031360DCE7324A136823F00103B7
:1024F0001360FFF777FE05462E4B1B6813F0020FA3
:10250000CFD0FFF76FFE401B0228F5D903202BE147
:10251000284A536F23F001035367FFF763FE054614
:10252000244B5B6F13F0020F06D0FFF75BFE401BDE
:102530000228F5D9032017E1236813F0040F7DD09A
:102540001C4B1B6C13F0805F1ED11A4B1A6C42F0AF
:1025500080521A641B6C03F080530193019B012588
:10256000154B1B6813F4807F10D0A368012B25D076
:10257000002B3BD10F4B1A6F22F001021A671A6F22
:1025800022F004021A671EE00025E9E70A4A1368F0
:1025900043F480731360FFF725FE0646064B1B6865
:1025A00013F4807FE1D1FFF71DFE801B6428F5D96D
:1025B0000320D9E00038024000700040724A136FD7
:1025C00043F001031367A36833B3FFF70BFE06461E
:1025D0006D4B1B6F13F0020F2FD1FFF703FE801B13
:1025E00041F288339842F3D90320BDE0052B09D08E
:1025F000654B1A6F22F001021A671A6F22F004026B
:102600001A67E0E7604B1A6F42F004021A671A6F0C
:1026100042F001021A67D6E7FFF7E4FD06465A4B7F
:102620001B6F13F0020F08D0FFF7DCFD801B41F297
:1026300088339842F3D9032096E0FDB9A369002BB3
:1026400000F09180504A926802F00C02082A59D09A
:10265000022B19D04C4A136823F080731360FFF7E4
:10266000C1FD0446484B1B6813F0007F48D0FFF7BC
:10267000B9FD001B0228F5D9032075E0424A136C0E
:1026800023F080531364D9E73F4A136823F0807323
:102690001360FFF7A7FD05463B4B1B6813F0007F57
:1026A00006D0FFF79FFD401B0228F5D903205BE011
:1026B000E369226A1343626A43EA8213A26A5208F8
:1026C000013A43EA0243E26A43EA0263226B43EAC5
:1026D00002732D4A5360136843F080731360FFF751
:1026E00081FD0446284B1B6813F0007F06D1FFF7DD
:1026F00079FD001B0228F5D9032035E0002033E0E6
:10270000002031E0204A5268012B2FD002F48003D0
:10271000E1698B422CD102F03F03216A8B4229D11F
:10272000616A47F6C0731340B3EB811F24D102F4F2
:102730004031A36A5B08013BB1EB034F1ED102F0AD
:102740007063E16AB3EB016F1AD102F0E042236BD0
:10275000B2EB037F16D1002006E001207047012074
:1027600002E0012000E0002002B070BD0120FBE784
:102770000120F9E70120F7E70120F5E70120F3E761
:102780000120F1E70120EFE70038024008B5334BA4
:102790009B6803F00C03042B5BD0082B5BD12F4B01
:1027A0005A6802F03F025B6813F4800F2CD02B4B69
:1027B0005868C0F388104FEA401CBCEB000C6EEB6D
:1027C0000E0E4FEA8E1343EA9C634FEA8C11B1EB75
:1027D0000C0163EB0E03DB0043EA5173C90011EBFC
:1027E000000C43F10003590200234FEA4C2041EA58
:1027F000DC51FDF75DFD194B5B68C3F30143013309
:102800005B00B0FBF3F008BD144B5868C0F38810B0
:102810004FEA401CBCEB000C6EEB0E0E4FEA8E1321
:1028200043EA9C634FEA8C11B1EB0C0163EB0E039E
:10283000DB0043EA5173C90011EB000C43F10003C4
:10284000990200234FEA8C2041EA9C51FDF730FDAC
:10285000D1E70348D7E70348D5E700BF0038024077
:1028600000127A000024F400002800F0A08070B567
:102870000D460446524B1B6803F00F038B420BD2EC
:102880004F4A136823F00F030B431360136803F0E0
:102890000F038B4240F08D80236813F0020F17D096
:1028A00013F0040F04D0474A936843F4E053936055
:1028B000236813F0080F04D0424A936843F460433E
:1028C0009360404A936823F0F003A1680B43936040
:1028D000236813F0010F31D06368012B20D0022B45
:1028E00025D0384A126812F0020F64D035498A6840
:1028F00022F0030213438B60FFF774FC0646314B52
:102900009B6803F00C036268B3EB820F16D0FFF7ED
:1029100069FC801B41F288339842F0D9032045E0DE
:10292000284A126812F4003FE0D101203EE0254A17
:10293000126812F0007FD9D1012037E0204B1B68CC
:1029400003F00F03AB420AD91D4A136823F00F03AB
:102950002B431360136803F00F03AB422DD12368A0
:1029600013F0040F06D0174A936823F4E053E1688C
:102970000B439360236813F0080F07D0114A936844
:1029800023F46043216943EAC1039360FFF7FEFE2D
:102990000C4B9B68C3F303130B4AD35CD8400B4B1F
:1029A00018600B4B1868FFF763FB002070BD012017
:1029B00070470120FAE70120F8E70120F6E700BFA1
:1029C000003C024000380240ACA500080400002092
:1029D0000C000020014B1868704700BF0400002065
:1029E00008B5FFF7F7FF044B9B68C3F38223034A44
:1029F000D35CD84008BD00BF00380240A4A5000841
:102A000008B5FFF7E7FF044B9B68C3F34233034A63
:102A1000D35CD84008BD00BF00380240A4A5000820
:102A20000F2303600B4B9A6802F0030242609A681E
:102A300002F0F00282609A6802F4E052C2609B6881
:102A4000DB0803F4E0530361034B1B6803F00F033F
:102A50000B60704700380240003C0240F0B583B084
:102A60000446066816F001060DD0B54B9A6822F4AC
:102A700000029A609A68416B0A439A60436B002B8C
:102A800000F067810026256815F4002511D0AC4AB6
:102A9000D2F88C3023F44013E16B0B43C2F88C3036
:102AA000E36BB3F5801F00F05681002B00F05581D9
:102AB0000025236813F4801F0FD0A14AD2F88C3070
:102AC00023F44003216C0B43C2F88C30236CB3F524
:102AD000800F00F0448103B90125236813F0807F43
:102AE00000D0012613F0200F40F03B81236813F043
:102AF000100F0CD0924BD3F88C2022F08072C3F8C8
:102B00008C20D3F88C20A16B0A43C3F88C20236857
:102B100013F4804F08D08A4AD2F8903023F440331F
:102B2000616E0B43C2F89030236813F4004F08D055
:102B3000834AD2F8903023F44023A16E0B43C2F8AD
:102B40009030236813F4803F08D07D4AD2F890304B
:102B500023F44013E16E0B43C2F89030236813F462
:102B6000003F08D0764AD2F8903023F44003216F1A
:102B70000B43C2F89030236813F0400F08D0704A1E
:102B8000D2F8903023F00303616C0B43C2F890300D
:102B9000236813F0800F08D0694AD2F8903023F0F0
:102BA0000C03A16C0B43C2F89030236813F4807FB0
:102BB00008D0634AD2F8903023F03003E16C0B4325
:102BC000C2F89030236813F4007F08D05C4AD2F832
:102BD000903023F0C003216D0B43C2F8903023687E
:102BE00013F4806F08D0564AD2F8903023F4407323
:102BF000616D0B43C2F89030236813F4006F08D066
:102C00004F4AD2F8903023F44063A16D0B43C2F8D1
:102C10009030236813F4805F08D0494AD2F890308E
:102C200023F44053E16D0B43C2F89030236813F452
:102C3000005F08D0424AD2F8903023F44043216E1E
:102C40000B43C2F89030236813F4800F08D03C4A3D
:102C5000D2F8903023F08063A16F0B43C2F890301C
:102C6000236813F4001F0DD0354AD2F8903023F0BA
:102C70000063E16F0B43C2F89030E36FB3F1006F74
:102C800000F0D580236813F0080F00D0012513F45D
:102C9000802F08D02A4AD2F8903023F04073616F19
:102CA0000B43C2F89030236813F4000F09D0244A74
:102CB000D2F8903023F08053D4F880100B43C2F840
:102CC0009030236813F0806F09D01D4AD2F89030FD
:102CD00023F00053D4F884100B43C2F890302368DB
:102CE00013F0006F09D0164AD2F88C3023F000732D
:102CF000D4F888100B43C2F88C30236813F0805F3F
:102D000009D00F4AD2F88C3023F08063D4F88C10AD
:102D10000B43C2F88C3026B9236813F0007F00F013
:102D20000681074A136823F080631360FFF75AFA9D
:102D30000646034B1B6813F0006F7AD002E000BF19
:102D400000380240FFF74EFA801B6428F1D90320B7
:102D5000F0E0012697E60126A7E60125A9E601266F
:102D6000B9E67F4B1A6C42F080521A641B6C03F078
:102D700080530193019B7B4A136843F48073136073
:102D8000FFF730FA0746774B1B6813F4807F06D1B4
:102D9000FFF728FAC01B6428F5D90320CAE0704B5E
:102DA0001B6F13F4407315D0226B02F440729A42E9
:102DB00010D06B4B1A6F22F44072196F41F48031BE
:102DC0001967196F21F4803119671A671B6F13F0A7
:102DD000010F12D1236B03F44072B2F5407F1DD076
:102DE0005F4A936823F4F81393605D490B6F226B7D
:102DF000C2F30B0213430B6778E6FFF7F3F90746BC
:102E0000574B1B6F13F0020FE4D1FFF7EBF9C01B18
:102E100041F288339842F3D903208BE0504882680E
:102E200022F4F812504919400A438260DDE7012577
:102E300028E7236813F0010F13D0636B8BB9484A5E
:102E4000D2F88430D2F88410606803F4403343EA47
:102E5000801301F070610B43A16843EA0173C2F86B
:102E60008430236813F4002F03D0E26BB2F5801F87
:102E700006D013F4801F1ED0236CB3F5800F1AD137
:102E8000374AD2F88430D2F88410606803F44033B3
:102E900043EA8013E06843EA006301F0E0410B433A
:102EA000C2F88430D2F88C3023F01F03616A0139F4
:102EB0000B43C2F88C30236813F0807F11D0284A6E
:102EC000D2F88400D2F88410666823691B0443EAB0
:102ED000861300F07060034301F0E0410B43C2F839
:102EE0008430236813F0007F0DD0626823691B04CF
:102EF00043EA8213E26843EA0263A26843EA027388
:102F0000174AC2F88430164A136843F0806313608E
:102F1000FFF768F90646124B1B6813F0006F06D1E5
:102F2000FFF760F9801B6428F5D9032002E0012D2A
:102F300002D0002003B0F0BD094A136823F080538B
:102F40001360FFF74FF90546054B1B6813F0005F50
:102F50000CD0FFF747F9401B6428F5D90320E9E7B7
:102F60000038024000700040FFFCFF0F236813F49C
:102F7000002F01D0E26B22B113F4801F1DD0236C0F
:102F8000DBB9354AD2F88830D2F88810606903F48A
:102F9000403343EA8013A06943EA006301F0E04153
:102FA0000B43C2F88830D2F88C3023F4F853A16A6E
:102FB000013943EA0123C2F88C30236813F4001F5F
:102FC00003D0E36FB3F1006F31D0236813F0080F23
:102FD00019D0214AD2F88810D2F88830606903F4F9
:102FE000403343EA801301F070610B43E16943EA27
:102FF0000173C2F88830D2F88C3023F44033E16A90
:103000000B43C2F88C30144A136843F080531360AA
:10301000FFF7E8F80446104B1B6813F0005F19D166
:10302000FFF7E0F8001B6428F5D9032082E70A4A7D
:10303000D2F88800D2F888106569236A1B0443EA35
:10304000851300F07060034301F0E0410B43C2F8C8
:103050008830BAE700206DE70038024000230F2BCC
:1030600000F2F48070B582B066E085684FEA430EE6
:10307000032404FA0EF425EA0405CC6804FA0EF4DD
:103080002C438460446824EA02044A68C2F30012B4
:103090009A40224342605DE0DC08083450F8242066
:1030A00003F00705AD004FF00F0E0EFA05FE22EA01
:1030B0000E0E0A69AA4042EA0E0240F824205DE0A2
:1030C000092200E0002202FA0EF22A430234604D87
:1030D00045F824205F4A94686FEA0C0224EA0C0544
:1030E0004E6816F4801F01D04CEA0405594CA560C7
:1030F000E46802EA04054E6816F4001F01D04CEAA9
:103100000405544CE560646802EA04054E6816F450
:10311000003F01D04CEA04054E4C65602468224013
:103120004D6815F4803F01D04CEA0402494C2260FE
:1031300001330F2B00F2888001229A400C6804EAC8
:10314000020C32EA0404F3D14C6804F00304013C9D
:10315000012C8AD94A6802F00302032A09D0C46804
:103160005D000322AA4024EA02048A68AA4022439E
:10317000C2604A6802F00302022A8DD004684FEA56
:10318000430E032202FA0EF224EA02044A6802F015
:10319000030202FA0EF2224302604A6812F4403F30
:1031A000C6D02D4A546C44F480445464526C02F4EA
:1031B00080420192019A9C08A51C254A52F825508C
:1031C00003F0030E4FEA8E0E0F2202FA0EF225EAEA
:1031D0000205224A90423FF475AF02F580629042A8
:1031E00022D002F58062904220D002F580629042A7
:1031F0001ED002F5806290421CD002F5806290429F
:103200001AD002F58062904218D002F58062904296
:1032100016D002F58062904214D002F5806290428E
:103220003FF44EAF0A224EE701224CE702224AE762
:10323000032248E7042246E7052244E7062242E744
:10324000072240E708223EE702B070BD704700BF8A
:1032500000380140003C01400038024000000240BC
:103260000AB181617047090481617047436901EACD
:10327000030221EA030141EA02418161704730B44F
:1032800005682C6824F480242C60046863608368DB
:10329000402B05D0036899600368DA6030BC704742
:1032A00003689A600368D960F8E7000010B4036807
:1032B000D9B210390A4AA2FB01421209094CA25C98
:1032C000C2655F2907D96FF3090304338365806DF5
:1032D0005DF8044B70476FF309038365F7E700BFA0
:1032E000ABAAAAAABCA50008836A826992B9012B7D
:1032F0000AD0022B02D00BB100207047C36A13F032
:10330000807F28D100207047C36AB3F1C07F24D0EA
:1033100000207047B2F5005F09D0022B25D9032B9E
:1033200025D1C36A13F0807F23D100207047032B7F
:1033300003D8DFE803F01404140A00207047C36ABE
:1033400013F0807F0DD100207047C36AB3F1C07FB6
:1033500009D00020704701207047012070470120EC
:1033600070470120704701207047012070470020FE
:10337000704701207047000070B50446FEF732FF29
:10338000002C5CD00546022384F83530002384F8F5
:1033900034302268136823F00103136023681A682D
:1033A00012F0010F0AD0FEF71DFF431B052BF5D9C4
:1033B00020236365032084F8350070BD1A68214915
:1033C00011406268A0680243E0680243206902433A
:1033D00060690243A0690243E0690243206A024334
:1033E0000A43616A04291ED01A602668756925F0AF
:1033F0000705636A1D43042B07D1A36A1D43E36AD3
:103400001BB12046FFF770FF90B975612046FFF7AA
:103410004DFFE26D3F2393408360002060650123F0
:1034200084F83530C9E7E16A206B01430A43DBE7E2
:1034300040236365002384F835300120BDE7012077
:10344000BBE700BF3F8010E038B50446856D90F8BB
:10345000340001282FD0012084F8340094F835007E
:10346000012804D0002384F83430022038BD022023
:1034700084F83500002060652046FFF700FFE26D0C
:103480003F239340AB602268136843F01603136038
:103490002268536943F080035361236C23B122688F
:1034A000136843F0080313602268136843F00103B4
:1034B00013600020DAE70220D8E70000F0B583B0FF
:1034C000044600230193724B1D68724BA3FB053524
:1034D000AD0A876D3E68C26D08239340334210D019
:1034E00003681A6812F0040F0BD01A6822F0040265
:1034F0001A60C26D08239340BB60436D43F0010323
:103500004365E26D01239340334209D0226852693A
:1035100012F0800F04D0BB60636D43F0020363655B
:10352000E26D04239340334209D02268126812F0FE
:10353000020F04D0BB60636D43F004036365E26D6A
:1035400010239340334224D02268126812F0080FEF
:103550001FD0BB6023681A6812F4802F0DD01B683F
:1035600013F4002F04D1236C9BB12046984710E040
:10357000A36C73B1204698470BE01A6812F4807F61
:1035800003D11A6822F008021A60236C0BB120469E
:103590009847E26D20239340334254D0226812684A
:1035A00012F0100F4FD0BB6094F83530052B0ED0C1
:1035B00023681A6812F4802F33D01B6813F4002F8D
:1035C0002AD1636C002B3ED0204698473BE022680E
:1035D000136823F0160313602268536923F08003F5
:1035E0005361236CA3B12268136823F008031360AE
:1035F000E26D3F239340BB60012384F83530002304
:1036000084F83430236D002B3FD0204698473CE0AF
:10361000A36C002BE7D1EBE7E36BA3B120469847FF
:1036200011E01A6812F4807F09D11A6822F01002A2
:103630001A60012384F83530002384F83430E36BBA
:103640000BB120469847636DFBB1636D13F0010F1A
:1036500017D0052384F835302268136823F001035E
:103660001360019B01330193AB4204D823681B68AC
:1036700013F0010FF5D1012384F83530002384F8CD
:103680003430E36C0BB12046984703B0F0BD00BF67
:1036900004000020B5814E1B10B582B01B4B1A6C84
:1036A00042F080521A641B6C03F080530193019B1B
:1036B000174A136843F480331360FEF793FD044602
:1036C000134B5B6813F4803F08D1FEF78BFD001BA2
:1036D000B0F57A7FF4D9032002B010BD0C4A13680C
:1036E00043F400331360FEF77DFD0446084B5B682E
:1036F00013F4003F07D1FEF775FD001BB0F57A7F8C
:10370000F4D90320E8E70020E6E700BF00380240D4
:103710000070004070B4046A036A23F0010303627E
:1037200042688569124B2B400D681D4324F002044A
:103730008B6823430F4C104EB04218BFA0420CBF01
:103740000124002405D123F00803CE681E4326F08F
:1037500004032CB122F440724C6914438A69224359
:10376000426085614A684263036270BC704700BF73
:103770008CFFFEFF000001400004014070B4036AAA
:10378000026A22F4807202624268C569144C2C40BD
:103790000E68264323F400738C6843EA0423114C1B
:1037A000114DA84218BFA0420CBF0124002406D12D
:1037B00023F40063CD6843EA052323F480633CB11E
:1037C00022F440524C6942EA04128C6942EA041223
:1037D0004260C6614A68C263036270BC704700BF42
:1037E0008CFFFEFF000001400004014070B4036A3A
:1037F000026A22F4805202624468C5690D4A2A4076
:103800000D6842EA052223F400538D6843EA05332C
:10381000094E0A4DA84218BFB04204D124F4804496
:103820004D6944EA85144460C2614A6802640362D7
:1038300070BC7047FF8CFFFE000001400004014097
:1038400070B4036A026A22F4803202624468426DF4
:103850000D4D15400A682A4323F400338D6843EA6E
:1038600005430A4E0A4DA84218BFB04204D124F4C1
:1038700080344D6944EA0524446042654A688265A3
:10388000036270BC704700BF8FFFFEFF0000014065
:103890000004014070B4036A026A22F480120262DA
:1038A0004468456D0D4A2A400D6842EA052223F41A
:1038B00000138D6843EA0553094E0A4DA84218BF0C
:1038C000B04204D124F480244D6944EA8524446044
:1038D00042654A68C265036270BC7047FF8FFFFE95
:1038E000000001400004014090F83D30012B35D12B
:1038F000022380F83D3003681A4AB3F1804F18BFA5
:1039000093421DD0A2F57C42934219D002F5806209
:10391000934215D002F58062934211D002F57842AD
:1039200093420DD002F57052934209D0A2F5943221
:10393000934205D01A6842F001021A6000207047D5
:103940009968094A0A40062A18BFB2F5803F07D095
:103950001A6842F001021A60002070470120704787
:1039600000207047000001400700010090F83D3042
:10397000012B3AD1022380F83D300268D36843F02E
:103980000103D36003681B4AB3F1804F18BF934211
:103990001DD0A2F57C42934219D002F58062934279
:1039A00015D002F58062934211D002F5784293421D
:1039B0000DD002F57052934209D0A2F59432934291
:1039C00005D01A6842F001021A6000207047996819
:1039D000094A0A40062A18BFB2F5803F07D01A6884
:1039E00042F001021A600020704701207047002059
:1039F000704700BF0000014007000100704770479A
:103A00007047704770B504460368DE681D6915F09D
:103A1000020F10D016F0020F0DD06FF002021A61E3
:103A20000123037703689B6913F0030F64D0FFF74A
:103A3000E6FF0023237715F0040F12D016F0040FD1
:103A40000FD023686FF004021A61022323772368E2
:103A50009B6913F4407F55D02046FFF7D0FF002329
:103A6000237715F0080F12D016F0080F0FD0236837
:103A70006FF008021A61042323772368DB6913F0CF
:103A8000030F46D02046FFF7BAFF0023237715F037
:103A9000100F12D016F0100F0FD023686FF0100225
:103AA0001A61082323772368DB6913F4407F37D03A
:103AB0002046FFF7A4FF0023237715F0010F02D063
:103AC00016F0010F33D115F4025F02D016F0800F0B
:103AD00035D115F4807F02D016F0800F37D115F064
:103AE000400F02D016F0400F39D115F0200F02D050
:103AF00016F0200F3BD170BDFFF780FF2046FFF787
:103B00007FFF96E72046FFF779FF2046FFF778FF13
:103B1000A5E72046FFF772FF2046FFF771FFB4E7E5
:103B20002046FFF76BFF2046FFF76AFFC3E72368D5
:103B30006FF001021A612046FDF75CFAC3E72368C3
:103B40006FF402521A61204600F073FAC1E723684D
:103B50006FF480721A61204600F06CFABFE72368A8
:103B60006FF040021A612046FFF74BFFBDE7236864
:103B70006FF020021A61204600F05AFABBE70000FD
:103B800070B403683C4A904214BF00220122B0F195
:103B9000804F14BF144642F00104ACB9374DA8421F
:103BA00014BF00250125364EB0420DD065B905F190
:103BB000804505F58235A84214BF0025012506F58C
:103BC0000066B04200D01DB123F070034D682B4356
:103BD000002C33D1294CA04214BF00240124284DCD
:103BE000A8422BD054BB04F1804404F58234A04297
:103BF00014BF0024012405F50065A8421ED0ECB9CD
:103C0000204CA04214BF0024012405F59A35A84297
:103C100014D09CB91C4CA04214BF0024012405F50B
:103C20000065A8420AD04CB9184CA04214BF002429
:103C30000124A5F59635A84200D01CB123F44073A9
:103C4000CC68234323F080034C6923438C68C4620F
:103C50000C6884620E4CA04208BF42F001020AB117
:103C60000A690263026842F00402026001224261B2
:103C7000036070BC704700BF0000014000080040B6
:103C800000040040004401400018004000200040B3
:103C90000004014060B310B5044690F83D3013B302
:103CA000022384F83D30214651F8040BFFF768FFEA
:103CB000012384F8483084F83E3084F83F3084F89B
:103CC000403084F8413084F8423084F8433084F83E
:103CD000443084F8453084F8463084F8473084F81E
:103CE0003D30002010BD80F83C30FDF73FFFD7E7A6
:103CF0000120704760B310B5044690F83D3013B30F
:103D0000022384F83D30214651F8040BFFF738FFB9
:103D1000012384F8483084F83E3084F83F3084F83A
:103D2000403084F8413084F8423084F8433084F8DD
:103D3000443084F8453084F8463084F8473084F8BD
:103D40003D30002010BD80F83C30FDF725FFD7E75F
:103D50000120704770B4036A026A22F01002026206
:103D600042688569144C2C400D6844EA052523F00F
:103D700020038C6843EA0413104C114EB04218BF64
:103D8000A0420CBF0124002406D123F08003CE689A
:103D900043EA061323F040033CB122F440624C692D
:103DA00042EA84028C6942EA8402426085614A6880
:103DB0008263036270BC7047FF8CFFFE000001400D
:103DC0000004014038B590F83C30012B00F095809C
:103DD00004460D46012380F83C30142A00F2888006
:103DE000DFE802F00B8686861F8686863486868606
:103DF000488686865D86868671000068FFF78AFCA5
:103E00002268936943F0080393612268936923F061
:103E1000040393612268936929690B43936100202D
:103E200067E00068FFF796FF2268936943F4006338
:103E300093612268936923F4806393612268936994
:103E4000296943EA01239361002052E00068FFF7EB
:103E500095FC2268D36943F00803D3612268D369D3
:103E600023F00403D3612268D36929690B43D3612A
:103E700000203EE00068FFF7B9FC2268D36943F4F4
:103E80000063D3612268D36923F48063D36122681D
:103E9000D369296943EA0123D361002029E000683E
:103EA000FFF7CEFC2268536D43F008035365226888
:103EB000536D23F0040353652268536D29690B4346
:103EC0005365002015E00068FFF7E4FC2268536D9D
:103ED00043F4006353652268536D23F48063536594
:103EE0002268536D296943EA01235365002000E0ED
:103EF0000120002384F83C3038BD0220FCE700009C
:103F000090F83C20012A45D070B40346012280F885
:103F10003C20022280F83D200268506894681E4EC2
:103F20001E4DAA4218BFB24203D120F470004D6862
:103F3000284320F070000D68284350601A68164826
:103F4000B2F1804F18BF824217D0A0F57C40824268
:103F500013D000F5806082420FD000F5806082426D
:103F60000BD000F57840824207D000F570508242B5
:103F700003D0A0F59430824204D124F080048968F3
:103F800021439160012283F83D20002083F83C000A
:103F900070BC7047022070470000014000040140DF
:103FA00090F83C30012B3CD030B40246012380F81D
:103FB0003C30CB6823F440738868034323F4806368
:103FC0004868034323F400630868034323F48053E1
:103FD0000869034323F400534869034323F48043EF
:103FE000886A034323F47023886943EA0043106816
:103FF0000D4D0E4CA04218BFA8420CD123F4700303
:104000004C6A43EA045323F08073CC69234323F0C2
:104010000073096A0B434364002082F83C0030BC03
:1040200070470220704700BF0000014000040140BB
:10403000704770477047002800F0A18038B50446EB
:1040400090F82030D3B12268136843F00103136065
:10405000FEF7C8F8054623685A6812F0010F10D120
:10406000FEF7C0F8401B0A28F5D9636A43F4003311
:104070006362052384F82030012038BDFDF75AFA29
:10408000E1E71A6822F002021A60FEF7ABF8054673
:1040900023685A6812F0020F0DD0FEF7A3F8401BF8
:1040A0000A28F5D9636A43F400336362052384F870
:1040B00020300120E1E7227E012A3DD01A6822F05B
:1040C00080021A60637E012B3BD02268136823F0C4
:1040D00040031360A37E012B39D02268136823F0BC
:1040E00020031360E37E012B37D02268136843F06E
:1040F00010031360237F012B35D02268136823F04F
:1041000008031360637F012B33D02268136823F008
:1041100004031360A368E2681343226913436269CE
:1041200013436268013A21681343CB610020606247
:10413000012384F82030A0E71A6842F080021A6058
:10414000C0E72268136843F040031360C2E72268A7
:10415000136843F020031360C4E72268136823F058
:1041600010031360C6E72268136843F00803136066
:10417000C8E72268136843F004031360CAE701200C
:104180007047704770477047704770477047704777
:104190007047704770477047704770472DE9F84F78
:1041A000054603685C69D3F804809F68D3F80CA0C7
:1041B000D3F81090D3F818B014F001063BD017F0E4
:1041C000010616D001229A6017F0020F08D117F0ED
:1041D000040F0CD117F0080606D04FF4805608E003
:1041E000FFF7CFFF002604E0FFF7CEFF01E04FF41A
:1041F000006617F4807F0DD02B684FF480729A60B0
:1042000017F4007F40F0968017F4806F00F09680DE
:1042100046F4005617F4803F0DD02B684FF48032DF
:104220009A6017F4003F40F0938017F4802F00F05D
:10423000938046F4004614F0080F07D01AF0100FD0
:1042400004D046F400762B681022DA6014F0040FD4
:1042500003D01AF0080F40F0898014F0020F05D047
:104260002B68DB6813F0030F40F0878014F0400FD9
:1042700007D019F0100F04D046F480662B68102286
:104280001A6114F0200F02D019F0080F79D114F040
:10429000100F04D02B681B6913F0030F78D114F4AE
:1042A000003F02D018F0100F76D114F4803F02D0F6
:1042B00018F0080F77D114F4004F37D018F0040F1E
:1042C00031D014F4807F04D01BF0010F01D046F0F0
:1042D000010614F4007F04D01BF0020F01D046F059
:1042E000020614F4806F04D01BF0040F01D046F0D6
:1042F000040614F4006F16D01BF0700B13D0BBF142
:10430000400F66D056D8BBF1200F5CD0BBF1300F08
:104310005CD0BBF1100F01D146F008062A68936902
:1043200023F0700393612B6804225A60002E56D14B
:10433000BDE8F88F2846FFF725FF6BE717F4006FFD
:1043400002D046F4804665E72846FFF71EFF61E786
:104350002846FFF718FF6EE717F4002F02D046F447
:10436000803668E72846FFF711FF64E72B680822CC
:10437000DA602846FFF70CFF6FE72846FFF707FFD4
:1043800074E72B6808221A612846FFF703FF7EE7CF
:104390002846FFF7FEFE82E72B6810225A60284667
:1043A000FFF7F9FE81E72B6808225A602846FFF7DD
:1043B000F3FE80E7BBF1500F0ED0BBF1600FADD123
:1043C00046F48076AAE746F01006A7E746F02006F6
:1043D000A4E746F04006A1E746F080069EE76B6A38
:1043E00033436B622846FFF7D8FEA1E703689A695A
:1043F00012F0020F01D000229A6203689A6912F04B
:10440000010F03D19A6942F001029A61704710B41A
:10441000019CC1F3090141EA02411943214321F002
:10442000004102685368640D04F4806444F07F74B2
:1044300044F4583444F47F7444F0030423EA04033E
:104440000B4353605DF8044B70472DE9F04104467F
:1044500003689E6916F010067ED00D469046102225
:10446000DA61002637462368986910F0200F32D1B0
:104470008FBBB5F1FF3FF6D0FDF7B4FEA0EB08000F
:10448000A84201D8002DEED121684A6802F480428A
:1044900094F84230DBB2886910F4004F04D0203B1E
:1044A00018BF012302B973B923689B6913F0200F69
:1044B000D9D1FDF797FEA0EB08001928F4D946F0F2
:1044C00020060127CFE74B6843F480434B60FDF79C
:1044D00089FE8046E8E70FB92022DA6146F004063B
:1044E00001252268936913F4807F05D046F0010608
:1044F0004FF48071D161012513F4806F06D046F02E
:10450000080622684FF48061D161012513F4007F11
:1045100024D046F0020623684FF40072DA610125C8
:104520002046FFF763FF2268536823F0FF7323F4EC
:104530008B3323F4FF7323F001035360636C334325
:104540006364202384F84130002384F8423084F8E7
:1045500040302846BDE8F0810025C2E7002DF8D0A4
:10456000DEE770B504460D46164623689B6913F0D6
:10457000020F22D1324629462046FFF766FFF0B9E6
:10458000B5F1FF3FF1D0FDF72DFE801BA84201D809
:10459000002DEAD123689B6913F0020FE5D1636C0B
:1045A00043F020036364202384F84130002384F81F
:1045B000423084F84030012000E0002070BD01202E
:1045C000FCE72DE9F8430546884617461E46DDF808
:1045D00020902B689C6938EA04040CBF0123002357
:1045E000BB4227D14A4631462846FFF72EFF20BB63
:1045F000B6F1FF3FEDD0FDF7F5FDA0EB0900B042AD
:1046000001D8002EE5D12B689B6938EA03030CBF63
:1046100001230023BB42DCD16B6C43F020036B64AD
:10462000202385F84130002385F8423085F840305A
:10463000012000E00020BDE8F8830120FBE770B511
:1046400004460D46164604E023689B6913F0200FCC
:1046500012D023689B6913F0200F1BD132462946E4
:104660002046FFF7F2FEB8B9FDF7BCFD801BA8425B
:10467000EAD8002DEDD1E7E7636C43F020036364D3
:10468000202384F84130002384F8423084F84030FD
:10469000012000E0002070BD0120FCE700285DD073
:1046A00010B5044690F84130002B46D0242384F8FE
:1046B00041302268136823F00103136063682268A5
:1046C00023F0706313612268936823F400439360BE
:1046D000E368012B36D0A368226843F40443936057
:1046E000E368022B34D02268536823F400635360DC
:1046F000226851681A4B0B4353602268D36823F435
:104700000043D360236962691343A169226843EAC5
:104710000123D360E369216A22680B431360226896
:10472000136843F00103136000206064202384F8C1
:104730004130206384F8420010BD80F84030FDF71E
:1047400097F8B3E7A368226843F400439360C7E790
:104750002268536843F400635360C9E7012070473F
:10476000008000022DE9F04782B00F460A9E90F8C3
:104770004110202940F0B78004469146984690F8B1
:104780004030012B00F0B3804FF0010A80F840A0C8
:10479000FDF728FD05460090192352464FF40041CD
:1047A0002046FFF70EFF002840F0A380212384F865
:1047B0004130102384F8423000236364C4F824900D
:1047C000A4F82A806363638D9BB2FF2B1ED9FF235D
:1047D00023854FF08073228DEAB1226899F800108A
:1047E0009162626A01326262628D92B2013A92B261
:1047F0006285228D013A92B22285013241490091AF
:10480000D2B239462046FFF702FE18E0638D2385B9
:104810004FF00073DFE73B490091D2B239462046A2
:10482000FFF7F5FD0BE0628D92B222850023009325
:104830004FF00073D2B239462046FFF7E8FD638D92
:104840009BB2002B33D02A4631462046FFF789FE23
:10485000002850D1626A236812789A62636A013331
:104860006362638D9BB2013B9BB26385238D013BE9
:104870009BB22385628D92B2002AE0D0002BDED15C
:1048800000953346002280212046FFF79AFEA0BB08
:10489000638D9BB2FF2BC6D9FF2222850023009394
:1048A0004FF0807339462046FFF7B1FDC7E72A462F
:1048B00031462046FFF7C3FE08BB23682022DA6199
:1048C00021684B6823F0FF7323F48B3323F4FF73C9
:1048D00023F001034B6084F84120002384F8423028
:1048E00084F8403000E0022002B0BDE8F0870220EA
:1048F000FAE70120F8E70120F6E70120F4E70120BC
:10490000F2E700BF002000802DE9F04784B01D468B
:104910000023039390F84130202B40F09F800646FF
:104920008946904603689B6913F4004F40F09880D5
:1049300090F84030012B00F09580012380F8403042
:10494000242380F84130002343649A46F368012B06
:1049500010D0C9F30902444B134332685360FDF78A
:1049600041FC074632689369C3F3401C9369C3F363
:1049700000130BE0C9F309023C4B1343EDE7336826
:104980009C69C4F3401C9B69C3F300135CEA030CED
:1049900017D1B5F1FF3FF2D0FDF724FCC01BA842B0
:1049A00001D8002DEBD1202386F84130736C43F001
:1049B00020037364002386F84030012004B0BDE872
:1049C000F08733689A6912F0100F33D100972B46A5
:1049D000002220213046FFF7F4FD10B3736C042B46
:1049E00019D04FF0010A039B01330393039B434506
:1049F00002D2BAF1000F2ED1039B4345A6D3202348
:104A000086F84130736C43F020037364002386F80A
:104A100040300120D2E733682022DA61002373643A
:104A2000E1E732682023D36186F84130002386F81D
:104A30004030C3E71022DA6100972B460022202184
:104A40003046FFF7BEFD18B933682022DA61CAE7A5
:104A50004FF0010AC7E74FF0000ACDE70220ADE7AB
:104A60000220ABE70220A9E7002800020020000294
:104A7000034690F84120202A23D190F84020012AB3
:104A800021D0012280F84020242280F841200068B3
:104A9000026822F0010202601868026822F4805263
:104AA0000260186802680A43026019680A6842F0E6
:104AB00001020A60202283F84120002083F8400090
:104AC00070470220704702207047034690F841204B
:104AD000202A21D190F84020012A1FD0012280F8FD
:104AE0004020242280F841200068026822F0010260
:104AF00002601868026822F4706242EA01220260D1
:104B000019680A6842F001020A60202283F84120F5
:104B1000002083F840007047022070470220704751
:104B200070B110B50446037933B10223237100201C
:104B300020610123237110BD4371FCF7E5FDF4E70B
:104B400001207047002918BF002828D0034640796B
:104B5000012826D010B54FF0010E83F805E00220A1
:104B600018711C68206802F0100240F6FE7C0CFAF6
:104B700002FC20EA0C0C086849680143914041EAB4
:104B80000C0121601C682168C02000FA02F221EAB1
:104B90000202226083F804E00020587110BD012059
:104BA00070470220704700286FD010B50446436A52
:104BB00033B94368B3F5827F05D00023C36102E0B7
:104BC0000023036143610023A36294F85D30002B4E
:104BD00052D0022384F85D302268136823F040032A
:104BE0001360E368B3F5E06F4CD90022B3F5706F42
:104BF00018BFB3F5E06F01D00023A362636803F42C
:104C00008273A16801F404410B43216901F00201A0
:104C10000B43616901F001010B43A16901F40071CB
:104C20000B43E16901F038010B43216A01F0800177
:104C30000B43A16A01F4005120680B430360638BAE
:104C400003F00403616A01F010010B43616B01F092
:104C500008010B43E16801F470610B4321681343C1
:104C60004B602268D36923F40063D361002020667F
:104C7000012384F85D3010BD84F85C302046FCF7D9
:104C8000EFFEA6E74FF48052B0E7012070470268BC
:104C900052E8003F23F0C00342E800310029F6D17A
:104CA0002023C3677047026852E8003F23F49073E3
:104CB00042E800310029F6D1026802F1080353E806
:104CC000003F23F00103083242E800310029F3D10C
:104CD000036E012B06D02023C0F88030002303662A
:104CE00083667047026852E8003F23F0100342E8F1
:104CF00000310029F6D1EEE77047704738B5846B74
:104D0000E26FD4F8805023689B6813F0800F01D0C5
:104D1000212A10D023689B6813F0400F01D0222D68
:104D200010D0D4F8843043F01003C4F88430204607
:104D3000FFF7E3FF38BD0023A4F852302046FFF709
:104D4000A6FFE7E70023A4F85A302046FFF7ABFFA1
:104D5000E7E7704708B50346806B01224266026EA2
:104D6000012A13D1B0F858104A08A0F85A201B683D
:104D70005B689BB2994201D3A0F85A30B0F85A3020
:104D80009BB2C91A89B2FFF7E4FF08BDFFF7B4FF71
:104D9000FBE708B58446806BDCF81C30B3F5807FF8
:104DA00029D00023A0F85A30026852E8003F23F4CB
:104DB000807342E800310029F6D1026802F108034D
:104DC00053E8003F23F00103083242E80031002994
:104DD000F3D1026802F1080353E8003F23F04003D7
:104DE000083242E800310029F3D12023C0F8803096
:104DF000036E012B19D000234366036E012B1ED1D5
:104E00000023A0F85A30DCF800305B689BB2B0F8A1
:104E10005810994201D9A0F85A30B0F85A309BB2D4
:104E2000C91A89B2FFF795FF08BD026852E8003F32
:104E300023F0100342E800310029F6D1DBE7FBF74D
:104E4000F3FCF1E710B50446836802691343426935
:104E50001343C269134301680868914A02401A4328
:104E60000A602268536823F44053E1680B4353609F
:104E7000A269236A1A4321688B6823F430631343C1
:104E80008B602368874A934218D0874A934228D080
:104E9000864A93424FD0864A93425ED0854A9342D7
:104EA0006DD0854A93427FD0844A934200F091802E
:104EB000834A934200F0A280102329E0814BD3F86B
:104EC000903003F00303032B09D8DFE803F002045A
:104ED000AB0601231CE004231AE0082318E010238A
:104EE00016E0784BD3F8903003F00C030C2B0ED85F
:104EF000DFE803F0070D0D0D090D0D0D9A0D0D0DD9
:104F00000B00002304E0042302E0082300E0102348
:104F1000E069B0F5004F00F0B980082B00F21A816B
:104F2000DFE813F0F6000901F40018010C01180184
:104F3000180118010F01634BD3F8903003F03003D0
:104F4000202B73D005D8002B72D0102B72D10423E4
:104F5000DEE7302B70D10823DAE75A4BD3F89030D4
:104F600003F0C003802B69D005D8002B68D0402BFC
:104F700068D10423CCE7C02B66D10823C8E7514B86
:104F8000D3F8903003F44073B3F5007F5ED006D8B9
:104F9000002B5DD0B3F5807F5CD10423B8E7B3F577
:104FA000407F59D10823B3E7464BD3F8903003F440
:104FB0004063B3F5006F51D006D8002B50D0B3F545
:104FC000806F4FD10423A3E7B3F5406F4CD1082382
:104FD0009EE73C4BD3F8903003F44053B3F5005FA9
:104FE00044D006D8002B43D0B3F5805F42D10423D0
:104FF0008EE7B3F5405F3FD1082389E7314BD3F803
:10500000903003F44043B3F5004F37D005D8BBB31D
:10501000B3F5804F36D104237AE7B3F5404F33D14F
:10502000082375E7022373E7022371E702236FE782
:1050300000236DE710236BE7102369E7022367E77E
:10504000002365E7102363E7102361E702235FE78E
:1050500000235DE710235BE7102359E7022357E79E
:10506000012355E7102353E7102351E702234FE7AD
:1050700000234DE710234BE7102349E7022347E7BE
:10508000002345E7102343E7102341E7082B5BD8B3
:10509000DFE803F01A343A5A375A5A5A1E0000BF52
:1050A000F369FFEF00100140004400400048004059
:1050B000004C0040005000400014014000780040C7
:1050C000007C004000380240FDF78AFC00283DD0FB
:1050D0006268530803EB4003B3FBF2F3A3F1100142
:1050E0004FF6EF72914233D89AB222F00F02C3F317
:1050F000420313432268D36000202CE0FDF780FCBC
:10510000E4E7FDF743FBE1E71748E1E7164802E073
:10511000FDF766FC18B3636800EB5300B0FBF3F0D7
:10512000A0F110024FF6EF739A421AD8236880B2AA
:10513000D86000200FE0FDF763FCEBE7FDF726FBEE
:10514000E8E74FF40040E6E7012004E0002002E039
:10515000012000E001200023A366E36610BD0020CB
:10516000F9E70120F7E700BF0024F400436A13F0D9
:10517000080F06D00268536823F40043416B0B43C9
:105180005360436A13F0010F06D00268536823F49A
:105190000033816A0B435360436A13F0020F06D059
:1051A0000268536823F48033C16A0B435360436A37
:1051B00013F0040F06D00268536823F48023016BB8
:1051C0000B435360436A13F0100F06D002689368D4
:1051D00023F48053816B0B439360436A13F0200FD9
:1051E00006D00268936823F40053C16B0B439360AD
:1051F000436A13F0400F0AD00268536823F4801307
:10520000016C0B435360036CB3F5801F0BD0436AF2
:1052100013F0800F06D00268536823F40023816CDA
:105220000B43536070470268536823F4C003416C1A
:105230000B435360EBE72DE9F84305460E4617464E
:105240009946DDF820802B68DC6936EA04040CBF3F
:1052500001240024BC423AD1B8F1FF3FF3D0FCF75F
:10526000C1FFA0EB0900404534D8B8F1000F33D09E
:105270002B681A6812F0040FE5D0B6F1400218BF8F
:105280000122802EDFD0002ADDD0DA6912F0080F6B
:1052900011D1DA6912F4006FD5D04FF400621A62AE
:1052A0002846FFF700FD2023C5F88430002385F849
:1052B000783003200CE008241C622846FFF7F3FC3A
:1052C000C5F88440002385F87830012000E00020F4
:1052D000BDE8F8830320FBE70320F9E72DE9F0415F
:1052E00082B01E46C36F202B57D104460D46904610
:1052F000002A18BF002901D101204FE00023C0F887
:1053000084302123C367FCF76DFF0746A4F8508063
:10531000A4F85280A368B3F5805F02D04FF0000874
:1053200015E023693BB34FF0000810E02023E3674A
:10533000032033E038F8023B2268C3F3080393628A
:10534000B4F8522092B2013A92B2A4F85220B4F8C2
:1053500052309BB293B100963B46002280212046FA
:10536000FFF769FF0028E1D1002DE3D015F8012BEC
:1053700023689A62E4E7A8460025E8E700963B46E2
:10538000002240212046FFF756FF10B92023E36793
:1053900004E02023E367032000E0022002B0BDE820
:1053A000F08130B583B004460023C0F88430FCF7A8
:1053B00019FF05462268126812F0080F0FD1236802
:1053C0001B6813F0040F26D12023E367C4F8803054
:1053D00000202066606684F8780003B030BD6FF06E
:1053E0007E430093034600224FF400112046FFF74E
:1053F00022FF0028E3D0226852E8003F23F0800318
:1054000042E800310029F6D12023E367002384F825
:1054100078300320E1E76FF07E4300932B460022B3
:105420004FF480012046FFF706FF0028CCD0226809
:1054300052E8003F23F4907342E800310029F6D18E
:10544000226802F1080353E8003F23F00103083209
:1054500042E800310029F3D12023C4F88030002332
:1054600084F878300320B8E768B310B50446C36FFA
:1054700003B32423E3672268136823F00103136056
:10548000636AE3B92046FFF7DDFC012811D02268EA
:10549000536823F4904353602268936823F02A03EF
:1054A00093602268136843F0010313602046FFF7FE
:1054B00078FF10BD80F87830FCF77AFCD9E72046F9
:1054C000FFF754FEDEE701207047000010B50446E8
:1054D00013464165A0F858200022C0F884202222FB
:1054E000C0F88020426F8AB11F49D163426F1F49C3
:1054F0001164426F1E49D164426F00211165016839
:10550000426D2431406FFDF79FFF20BB236943B1FB
:10551000226852E8003F43F4807342E800310029DA
:10552000F6D1226802F1080353E8003F43F001037B
:10553000083242E800310029F3D1226802F1080361
:1055400053E8003F43F04003083242E800310029AD
:10555000F3D1002010BD1023C4F884302023C4F8F8
:1055600080300120F6E700BF934D0008554D00083C
:10557000FD4C000838B5D0F88030202B16D1002A19
:1055800018BF002914D00023036603685B6813F476
:10559000000F08D0046854E8003F43F0806344E8FB
:1055A0000035002DF6D1FFF791FF00E0022038BD55
:1055B0000120FCE700F1080343604FF0FF328260F6
:1055C000C3600361002303607047002303617047D9
:1055D00043684B609A688A6051609960086103680B
:1055E00001330360704730B40D68B5F1FF3F11D04F
:1055F00000F108031C465B681A68AA42FAD963687E
:105600004B6099608C6061600861036801330360DE
:1056100030BC70470469F2E70369416882688A60B8
:10562000416851605A68824206D0002202611A68BD
:10563000013A1A601868704782685A60F5E70346B5
:10564000406A18B11B6B1868C0F10700704710B5AD
:10565000044602F02FF9A26BE36B9A4204D00024B7
:1056600002F04EF9204610BD0124F9E710B50446BA
:1056700002F020F9A36B23B9012402F041F920467E
:1056800010BD0024F9E770B504461546866B026C20
:105690005AB903681BB100200136A66370BD80684B
:1056A00001F02EFC0023A360F6E76DB9406802F01C
:1056B000C4FD6368226C13446360A268934219D3EB
:1056C000236863602846E7E7C06802F0B6FDE36838
:1056D000226C51429B1AE3602268934202D2A36873
:1056E0000B44E360022D01D00020D5E726B1013E36
:1056F0000020D1E72846CFE70020CDE738B50546A2
:1057000002F0D8F895F8454064B201E0013C64B27B
:10571000002C0ADD6B6A43B105F1240001F0FAF9AF
:105720000028F3D001F0B0FAF0E7FF2385F8453008
:1057300002F0E6F802F0BEF895F8444064B201E0E9
:10574000013C64B2002C0ADD2B6943B105F1100065
:1057500001F0E0F90028F3D001F096FAF0E7FF231A
:1057600085F8443002F0CCF838BD38B5E0B10D46CC
:10577000044602F09FF82368E26B216C01FB0230C3
:10578000A0600020A0636360013A02FB0133E36084
:10579000FF2384F8443084F845300DBB236973B986
:1057A00002F0AEF8012038BD4FF0500372B683F31B
:1057B0001188BFF36F8FBFF34F8F62B6FEE704F11E
:1057C000100001F0A7F90028EAD04FF0E0234FF0D5
:1057D0008052C3F8042DBFF34F8FBFF36F8FDFE705
:1057E00004F11000FFF7E6FE04F12400FFF7E2FEEB
:1057F000D6E738B51D46049C0B4649B92460E063E2
:10580000236401212046FFF7B0FF84F84C5038BDD7
:105810002260F4E750B94FF0500372B683F3118859
:10582000BFF36F8FBFF34F8F62B6FEE7F0B583B063
:105830000C4615460746A1B101FB00F0503001F0BF
:1058400003FF064650B1002380F8463000902B46F7
:1058500000F1500221463846FFF7CBFF304603B037
:10586000F0BD0846EAE7F0B585B0019298B10F4661
:105870001D460446D1B1022D26D1E36B012B23D066
:105880004FF0500372B683F31188BFF36F8FBFF3ED
:105890004F8F62B6FEE74FF0500372B683F3118864
:1058A000BFF36F8FBFF34F8F62B6FEE7036C002B21
:1058B000E1D04FF0500372B683F31188BFF36F8FBE
:1058C000BFF34F8F62B6FEE701F0AEFA064668B945
:1058D000019B002B4AD04FF0500372B683F311881E
:1058E000BFF36F8FBFF34F8F62B6FEE700263DE038
:1058F0002A4639462046FFF7C6FE636A7BB948B19F
:105900004FF0E0234FF08052C3F8042DBFF34F8FC8
:10591000BFF36F8F01F0F4FF012005B0F0BD04F17B
:10592000240001F0F7F80028F4D04FF0E0234FF006
:105930008052C3F8042DBFF34F8FBFF36F8FE9E799
:1059400001F0DEFF0020E8E702A801F049F9012696
:1059500019E0002384F8443021E0002384F8453026
:1059600023E02046FFF7CAFE00F040FF01F0A2FF4F
:10597000A26BE36B9A42BBD3022DB9D0019B002BE3
:10598000DED0002EE0D001F0BBFF00F093FE01F06E
:1059900091FF94F8442052B2B2F1FF3FD9D094F86D
:1059A000452052B2B2F1FF3FD7D001F0A9FF01A9C3
:1059B00002A801F021F9D8B92046FFF748FE0028D7
:1059C000CFD0019904F1100001F08AF82046FFF7CA
:1059D00095FE00F00BFF0028C8D14FF0E0234FF0F8
:1059E0008052C3F8042DBFF34F8FBFF36F8FBDE715
:1059F0002046FFF783FE00F0F9FE00208DE748B156
:105A000008B5002181600160C1600B460A46FFF7BE
:105A10002AFF08BD704710B5024600210120FFF79C
:105A2000F9FE0446FFF7EBFF204610BD70B584B0C9
:105A3000019168B10446036CABB14FF0500372B6EC
:105A400083F31188BFF36F8FBFF34F8F62B6FEE70A
:105A50004FF0500372B683F31188BFF36F8FBFF31B
:105A60004F8F62B6FEE701F0DFF9054660B9019B92
:105A70006BB14FF0500372B683F31188BFF36F8F91
:105A8000BFF34F8F62B6FEE70026354657E0064665
:105A900055E0013BA36323683BB123694BB901F097
:105AA0002FFF0126304604B070BD01F093FBA060CB
:105AB000F3E704F1100001F02DF80028EFD04FF0CB
:105AC000E0234FF08052C3F8042DBFF34F8FBFF394
:105AD0006F8FE4E756B14FF0500372B683F311882D
